S0130000436F6E74726F6C5F5049442E73726563F4
S11300000C9434000C94B2020C94A3020C9451008E
S11300100C9451000C9451000C9451000C94510018
S11300200C9451000C9451000C9451000C94510008
S11300300C9451000C9451000C946F020C945100D8
S11300400C9451000C9451000C9449020C945100EE
S11300500C9451000C9479020C9451000C945100AE
S11300600C9451000C94510011241FBECFEFD8E022
S1130070DEBFCDBF12E0A0E0B1E0E8E2FAE202C0E8
S113008005900D92A238B107D9F723E0A2E8B2E0B7
S113009001C01D92A231B207E1F70E94270D0C9412
S11300A012150C940000ECE7F0E0908190839081AD
S11300B09064908390819083893039F48081807F2B
S11300C080838081826080830AC08A3041F4ECE7B7
S11300D0F0E08081807F8083808181608083EBE792
S11300E0F0E0808180838081826080838081816070
S11300F08083EAE7F0E08081806280838081886089
S11301008083808184608083808182608083808119
S113011081608083AEE7B0E08C9188638C938081AA
S1130120806880830895EAE7F0E080818F77808398
S1130130089587B18E7F87B98AB18B7F8AB98AB1D6
S1130140877F8AB98BB188608BB9E9E6F0E080815A
S11301508D7F8083808181608083808188608083BB
S113016080818B7F80838DB382608DBB8DB38160F2
S11301708DBB089526B1217089B1847090E0959566
S1130180879595958795281302C08BE208958DE293
S113019008958834A1F485B18C7F962F9295969515
S11301A096959370892B85B98BB170E0660F771F94
S11301B0660F771F8F73607C682B6BB908958C343E
S11301C081F485B1962F9695969593708C7F892BA3
S11301D085B98BB190E4699FB00111248F73682BAA
S11301E06BB90895CF93C82F8BB18F7E8BB96C2FC9
S11301F088E40E94C9008BB180628BB98FE99FE0CB
S11302000197F1F700C000008BB18F7D8BB98FE9A6
S11302109FE00197F1F700C000006C2F8CE40E946E
S1130220C9008BB180628BB98FE99FE00197F1F728
S113023000C000008BB18F7D8BB98FE99FE00197DF
S1130240F1F700C00000CF9108958AB180618AB9A6
S11302508AB180628AB98AB180648AB98AB18068B5
S11302608AB984B1816084B984B1826084B92FEF82
S113027083EF91E0215080409040E1F700C00000FE
S113028083E00E94F2008FE39CE90197F1F700C03C
S1130290000083E00E94F2009FEF21EE84E0915081
S11302A020408040E1F700C0000083E00E94F2009B
S11302B082E00E94F20088E20E94F2008CE00E9438
S11302C0F20081E00E94F20086E00E94F2000895AC
S11302D0CF93C82F8BB180618BB96C2F88E40E94B7
S11302E0C9008BB180628BB98FE99FE00197F1F768
S11302F000C000008BB18F7D8BB98FE99FE001971F
S1130300F1F700C000006C2F8CE40E94C9008BB18F
S113031080628BB98FE99FE00197F1F700C000007C
S11303208BB18F7D8BB98FE99FE00197F1F700C006
S11303300000CF910895823030F4862F8F7080684A
S11303400E94F2000895862F8F70806C0E94F20044
S11303500895CF93DF93EC0103C00E9468012196B6
S113036088818111FACFDF91CF910895CF93DF93E4
S1130370EC01623030F4842F8F7080680E94F200A8
S113038005C0842F8F70806C0E94F200CE010E9401
S1130390A901DF91CF91089581E00E94F2000895B0
S11303A08FE00E94F2008FE99FE00197F1F700C00F
S11303B0000008958CE00E94F2008FE99FE001970D
S11303C0F1F700C0000008958FEF93E09093870049
S11303D080938600A0E8B0E08C9180628C93E1E881
S11303E0F0E08081806180838081886080838C914B
S11303F082608C938C918C938081808380818083B4
S1130400808181608083089520E030E040E854E4F6
S11304100E94131420E030E040EA50E40E94B41239
S11304200E942D1370938B0060938A000895E2EC70
S1130430F0E0808180838081808380818083A1EC4F
S1130440B0E08C918C93808186608083E0ECF0E056
S1130450808180831092C50087E68093C4008C91CC
S113046080688C9308959091C00095FFFCCF809391
S1130470C60008958091C6000895E1ECF0E0808103
S1130480886180830895E1ECF0E08081877E808339
S113049008951F920F920FB60F9211242F933F933A
S11304A04F935F936F937F938F939F93AF93BF9378
S11304B0EF93FF930E943A0280930E03FF91EF9112
S11304C0BF91AF919F918F917F916F915F914F9168
S11304D03F912F910F900FBE0F901F9018951F9270
S11304E00F920FB60F9211240F900FBE0F901F9012
S11304F018951F920F920FB60F9211242F938F937A
S11305009F9381E080930F0380910B0390910C03E0
S1130510019690930C0380930B0380910B039091AD
S11305200C03843F914039F481E080930D031092D1
S11305300C0310920B039F918F912F910F900FBE7C
S11305400F901F9018951F920F920FB60F921124BF
S11305508F9381E0809311038F910F900FBE0F90C2
S11305601F9018951F920F920FB60F9211248F931C
S113057081E0809310038F910F900FBE0F901F9016
S1130580189584B584BD84B5826084BD85B585BD68
S11305908FE287BDEEE6F0E080818260808385B5DE
S11305A0856085BD08950F931F93CF93DF93C82F64
S11305B0062F10E0823539F4C801880F991F880F7F
S11305C0991F080F191F60E082E00E949B018EE3CF
S11305D00E94680161E082E00E949B018C2F0E94CE
S11305E0680162E082E00E949B018DE30E94680141
S11305F0C0E025C0C8016AE070E00E94DB148B01F2
S1130600D82FC23061F464E082E00E949B018CE246
S11306100E94680163E082E00E949B0105C066E0DD
S11306206C1B82E00E949B0180E38D0F0E94680195
S1130630C23021F467E082E00E949B01CF5FC330A7
S1130640C8F2DF91CF911F910F9108950E94CC01C0
S113065040E061E080E391E00E94B60160912C01EA
S113066082E50E94D30260912C0170E080E090E06A
S11306700E945C1320E030E040EA50E40E9413142E
S113068020E030E048EC52E40E94B4126093100180
S113069070931101809312019093130160912F01C3
S11306A070E080E090E00E945C1320E030E048ECD1
S11306B052E40E94B412609308017093090180937C
S11306C00A0190930B0160912E0170E080E090E0AC
S11306D00E945C1320E030E048EC52E40E94B41223
S11306E060930401709305018093060190930701C0
S11306F060912D0170E080E090E00E945C1320E0A6
S113070030E048EC52E40E94B4126093000170930C
S1130710010180930201909303011092020310924D
S113072003035EC280911003882309F4B9C00E94B8
S1130730BA008B3259F480910303853019F4109276
S1130740030313C08F5F809303030FC00E94BA009A
S11307508D3259F480910303811104C085E08093A4
S1130760030303C081508093030340E062E08DE300
S113077091E00E94B60180910303823009F44BC0DA
S113078028F4882361F0813059F188C0843009F459
S113079078C008F45BC0853009F47AC07FC06091EA
S11307A02C0182E50E94D30260912C0170E080E06C
S11307B090E00E945C1320E030E040EA50E40E94A4
S11307C0131420E030E048EC52E40E94B412609329
S11307D010017093110180931201909313015EC074
S11307E060912F0181E40E94D30260912F0170E097
S11307F080E090E00E945C1320E030E048EC52E49A
S11308000E94B412609308017093090180930A0155
S113081090930B0143C060912E0182E60E94D302A3
S113082060912E0170E080E090E00E945C1320E073
S113083030E048EC52E40E94B412609304017093D7
S11308400501809306019093070128C060912D0152
S113085083E60E94D30260912D0170E080E090E075
S11308600E945C1320E030E048EC52E40E94B41291
S1130870609300017093010180930201909303013E
S11308800DC040E062E081E192E00E94B60106C042
S113089040E062E08EE491E00E94B6011092100301
S11308A080911103882309F460C0809103038111AE
S11308B05CC0109211030E94D0011092040350C036
S11308C080911003882309F440C00E94BA008B323F
S11308D059F480912C01843619F410922C0113C020
S11308E08F5F80932C010FC00E94BA008D3259F49F
S11308F080912C01811104C084E680932C0103C0F3
S1130900815080932C0160912C0182E50E94D302D6
S113091060912C0170E080E090E00E945C1320E084
S113092030E040EA50E40E94131420E030E048EC48
S113093052E40E94B41260931001709311018093E9
S113094012019093130110921003809111038823D4
S113095039F01092110381E0809304030E94DA01BC
S113096080910403813009F0ABCF80911103882377
S113097009F45AC080910303813009F055C01092E4
S113098011030E94D0011092040349C08091100306
S11309908823D1F10E94BA008B3259F480912F013F
S11309A0843619F410922F0113C08F5F80932F01A6
S11309B00FC00E94BA008D3259F480912F01811129
S11309C004C084E680932F0103C0815080932F01DB
S11309D060912F0181E40E94D30260912F0170E0A5
S11309E080E090E00E945C1320E030E048EC52E4A8
S11309F00E94B412609308017093090180930A0164
S1130A0090930B011092100380911103882339F005
S1130A101092110381E0809304030E94DA01809113
S1130A200403813009F0B2CF80911103882309F4C3
S1130A305AC080910303823009F055C0109211030B
S1130A400E94D0011092040349C0809110038823AE
S1130A50D1F10E94BA008B3259F480912E01843670
S1130A6019F410922E0113C08F5F80932E010FC0D2
S1130A700E94BA008D3259F480912E01811104C074
S1130A8084E680932E0103C0815080932E016091EF
S1130A902E0182E60E94D30260912E0170E080E074
S1130AA090E00E945C1320E030E048EC52E40E94A5
S1130AB0B41260930401709305018093060190932E
S1130AC007011092100380911103882339F01092CA
S1130AD0110381E0809304030E94DA0180910403EE
S1130AE0813009F0B2CF80911103882309F45AC0F0
S1130AF080910303833009F055C0109211030E94C2
S1130B00D0011092040349C0809110038823D1F1CD
S1130B100E94BA008B3259F480912D01843619F465
S1130B2010922D0113C08F5F80932D010FC00E947E
S1130B30BA008D3259F480912D01811104C084E6EC
S1130B4080932D0103C0815080932D0160912D016C
S1130B5083E60E94D30260912D0170E080E090E072
S1130B600E945C1320E030E048EC52E40E94B4128E
S1130B70609300017093010180930201909303013B
S1130B801092100380911103882339F010921103FD
S1130B9081E0809304030E94DA0180910403813090
S1130BA009F0B2CF80911103882359F08091030397
S1130BB0843039F41092110381E08093020310927F
S1130BC00A0380911103882359F08091030385302F
S1130BD039F41092110381E08093020380930A0395
S1130BE080910203813009F09DCD0895EF92FF9228
S1130BF00F931F93CF93DF93C62FD0E0823581F4F8
S1130C0041110EC0CE01880F991F880F991FC80F7C
S1130C10D91F6894EE24E3F86894FF24F1F849C0DE
S1130C20823571F4CE01880F991F880F991FC80F60
S1130C30D91F0F2EF9E0EF2EF02DFF24F39439C0C5
S1130C40813411F4442339F1813411F4413051F1E8
S1130C50609178007091790080E090E00E945C13CC
S1130C6020E030E040EA50E40E94131420E030E039
S1130C7040E85AE30E94131420E030E048EC52E4C8
S1130C800E9413140E942613EB016894EE24E3F8E7
S1130C90FF24F3940EC00F2EFFE0EF2EF02DFF245F
S1130CA0F39407C00F2EF6E0EF2EF02D6894FF2486
S1130CB0F1F810E03CC09E01ADECBCEC0E94EF14D6
S1130CC09695879596958795969587959C01220F7D
S1130CD0331F880F991F880F991F880F991F820F40
S1130CE0931F0C2F081B9E010E94EF14EC01D69554
S1130CF0C795D695C795D695C795123071F46EEF02
S1130D006E0D8F2D0E949B018CE20E9468016DEF95
S1130D106E0D8F2D0E949B0105C06E2D611B8F2DC2
S1130D200E949B0180E3800F0E9468011F5F1330C3
S1130D3010F2DF91CF911F910F91FF90EF900895E2
S1130D402F923F924F925F926F927F928F929F92D7
S1130D50AF92BF92CF92DF92EF92FF920F931F93C5
S1130D60CF93DF9300D000D0CDB7DEB70EE812E00A
S1130D70D8016D917D918D919C91A0E1B1E02D916F
S1130D803D914D915C9129833A834B835C830E940E
S1130D9013146B017C01F80164817581868197814C
S1130DA04090140150901501609016017090170145
S1130DB0A30192010E9413149B01AC01C701B60167
S1130DC00E9443126B017C01D80118966D917D91AC
S1130DD08D919C911B97209118013091190140919C
S1130DE01A0150911B010E9413149B01AC01C7010D
S1130DF0B6010E9443126B017C010F2EF2E82F2EE4
S1130E00F2E03F2EF02DF101648175818681978196
S1130E100AE912E0D80114968D909D90AD90BC9093
S1130E201797A50194010E9413149B01AC01C701FB
S1130E30B6010E9442126B017C01F101608571854B
S1130E4082859385D80118962D913D914D915C91A1
S1130E501B970E9413149B01AC01C701B6010E94A9
S1130E6042126B017C01F801608371838283938356
S1130E7080869186A286B3866483758386839783EE
S1130E80409218015092190160921A0170921B014C
S1130E9029813A814B815C8120931401309315019F
S1130EA04093160150931701609178007091790076
S1130EB080E090E00E945C1320E030E040EA50E4DF
S1130EC00E94131420E030E040E85AE30E94131417
S1130ED09B01AC01C701B6010E9442126B017C0167
S1130EE06093DA027093DB028093DC029093DD025C
S1130EF02091E2023091E3024091E4025091E50234
S1130F000E9413142B013C016093D6027093D70204
S1130F108093D8029093D90220911C0130911D0135
S1130F2040911E0150911F01C701B6010E94131484
S1130F302091CA023091CB024091CC025091CD0253
S1130F400E9413142091D2023091D3024091D40212
S1130F505091D5020E94431269837A838B839C83C8
S1130F606093D2027093D3028093D4029093D502FB
S1130F702091DE023091DF024091E0025091E102C3
S1130F80C701B6010E9442122091C6023091C702E5
S1130F904091C8025091C9020E9413144B015C0194
S1130FA06093CE027093CF028093D0029093D102CB
S1130FB029813A814B815C81C301B2010E944312B1
S1130FC09B01AC01C501B4010E9443124B015C01B9
S1130FD0AEEBB2E06D937D938D939C931397C09287
S1130FE0DE02D092DF02E092E002F092E102C090D1
S1130FF0A602D090A702E090A802F090A902209146
S1131000C2023091C3024091C4025091C5020E94B1
S113101043129B01AC01C701B6010E9413146B017A
S11310207C016091B2027091B3028091B4029091FC
S1131030B50206EB12E0F80124813581468157811F
S11310400E9413149B01AC01C701B6010E94421215
S11310506B017C01D8016D937D938D939C931397C1
S1131060F80164837583868397838092C202909289
S1131070C302A092C402B092C50220E030E040EA6C
S113108050E40E940E141816ACF480E090E0A0EA3C
S1131090B0E48093B6029093B702A093B802B093E1
S11310A0B90210921C0110921D0110921E0110929F
S11310B01F0126C020E030E0A901C701B6010E944B
S11310C0AF1288238CF41092B6021092B7021092D9
S11310D0B8021092B90210921C0110921D011092D4
S11310E01E0110921F010CC080E090E0A0E8BFE355
S11310F080931C0190931D01A0931E01B0931F01C6
S11311006091B6027091B7028091B8029091B902D1
S11311100F900F900F900F90DF91CF911F910F912F
S1131120FF90EF90DF90CF90BF90AF909F908F9003
S11311307F906F905F904F903F902F9008958FEF26
S113114093E090938B0080938A00089510928B0013
S113115010928A0008952F923F924F925F926F925D
S11311607F928F929F92AF92BF92CF92DF92EF9233
S1131170FF920F931F93CF93DF93CDB7DEB7A8975A
S11311800FB6F894DEBF0FBECDBF80910F03882346
S113119009F453C0809107038A30E9F40E94A00641
S11311A00E94040280910D03813009F044C040E0A4
S11311B060912C0182E50E94F60540E060E08FE436
S11311C00E94F60540E060912F0181E40E94F6053B
S11311D010920D0330C0893071F5A8E7B0E08D910D
S11311E09C910E943302E8E7F0E080819181892F8D
S11311F00E94330280910E038130E9F40E94CC01F5
S113120040E061E082E591E00E94B601FFEF2BE748
S113121032E9F15020403040E1F700C00000109264
S11312200A0310920603109207030E9443020E94CD
S113123093000E94A60810920F0380911103882343
S113124009F4ECC3809107038A3009F0E7C31092D4
S1131250110310928B0010928A001092D602109201
S1131260D7021092D8021092D9021092D202109290
S1131270D3021092D4021092D5021092CE02109290
S1131280CF021092D0021092D1020E94CC0140E011
S113129061E083E691E00E94B60140E062E082E70B
S11312A091E00E94B60141E060912C0182E50E9428
S11312B0F60541E060912F0181E40E94F605109249
S11312C0090310920803A5C380911003882309F42D
S11312D09EC00E94BA008B3259F480910903833076
S11312E019F41092090313C08F5F809309030FC090
S11312F00E94BA008D3259F480910903811104C00F
S113130083E08093090303C0815080930903809193
S11313100903813021F130F08230F1F1833009F496
S113132058C073C060E081E00E949B018EE30E947C
S113133068016BE081E00E949B0180E20E946801E9
S113134060E082E00E949B0180E20E94680168E004
S113135082E00E949B0180E20E94680156C06BE01B
S113136081E00E949B018EE30E94680160E081E0BD
S11313700E949B0180E20E94680160E082E00E947A
S11313809B0180E20E94680168E082E00E949B0168
S113139080E20E94680139C060E082E00E949B0103
S11313A08EE30E9468016BE081E00E949B0180E271
S11313B00E94680160E081E00E949B0180E20E943B
S11313C0680168E082E00E949B0180E20E9468015B
S11313D01CC068E082E00E949B018EE30E946801C9
S11313E06BE081E00E949B0180E20E94680160E062
S11313F081E00E949B0180E20E94680160E082E03B
S11314000E949B0180E20E94680110921003809167
S11314101103882309F465C080910903811161C017
S11314201092110367E081E00E949B010E94D001A9
S11314301092040351C080911003882309F441C021
S11314400E94BA008B3259F480912C01843619F42D
S113145010922C0113C08F5F80932C010FC00E9447
S1131460BA008D3259F480912C01811104C084E6B4
S113147080932C0103C0815080932C0141E0609142
S11314802C0182E50E94F60560912C0170E080E059
S113149090E00E945C1320E030E040EA50E40E94B7
S11314A0131420E030E048EC52E40E94B41260933C
S11314B01001709311018093120190931301109203
S11314C0100380911103882339F01092110381E0F5
S11314D0809304030E94DA0180910403813009F0AF
S11314E0AACF809111038823B1F080910903813040
S11314F091F410921103809308030E94CC0140E000
S113150061E081E891E00E94B60140E062E082E996
S113151091E00E94B60180911103882309F468C206
S113152080910903823009F063C21092110364E0D0
S11315300E949B010E94D001109204034AC0809132
S113154010038823D9F10E94BA008B3259F4809198
S11315502F01843619F410922F0113C08F5F8093EA
S11315602F010FC00E94BA008D3259F480912F01CF
S1131570811104C084E680932F0103C081508093BD
S11315802F0141E060912F0181E40E94F6056091F2
S11315902F0170E080E090E00E945C1320E030E0D6
S11315A048EC52E40E94B41260930801709309015C
S11315B080930A0190930B01109210038091110300
S11315C0882339F01092110381E0809304030E9470
S11315D0DA0180910403813009F0B1CF2091080130
S11315E03091090140910A0150910B016091280149
S11315F07091290180912A0190912B010E9413146A
S113160020E030E040E05FE30E9413146093FA02AC
S11316107093FB028093FC029093FD029B01AC014A
S11316200E9443126B017C0140900C0150900D010B
S113163060900E0170900F01A30192010E94431269
S11316406D8B7E8B8F8B988FAEEAB2E06D937D931A
S11316508D939C931397A7019601C301B2010E9435
S11316604212698F7A8F8B8F9C8F0F2EF6EA2F2E62
S1131670F2E03F2EF02DF10144825582668277829A
S1131680A3019201C301B2010E94131469837A83F6
S11316908B839C838090E6029090E702A090E802FE
S11316A0B090E902209104013091050140910601B6
S11316B050910701C501B4010E9413149B01AC01B0
S11316C00E9443129B01AC01C301B2010E94131496
S11316D06D877E878F87988B9B01AC0169817A81A6
S11316E08B819C810E9443126D837E838F839887B4
S11316F0C0900001D0900101E0900201F09003013C
S1131700A7019601C501B4010E9413142091EA02B5
S11317103091EB024091EC025091ED0229873A8717
S11317204B875C870E94131420E030E040E850E4CB
S11317300E941314698B7A8B8B8B9C8B9B01AC015D
S11317406D817E818F8198850E9443126D8F7E8F7B
S11317508F8F98A3A3019201C301B2010E94431287
S11317609B01AC01C301B2010E9413146D837E83FB
S11317708F83988720E030E040E051E4C701B60150
S11317800E9413149B01AC01C501B4010E941314FF
S11317909B01AC0169857A858B859C850E94131415
S11317A09B01AC016D817E818F8198850E944212DC
S11317B069A37AA38BA39CA32D853E854F85588965
S11317C069817A818B819C810E9442129B01AC01C8
S11317D069897A898B899C890E9443126DA37EA3AF
S11317E08FA398A7A5019401C501B4010E944312D7
S11317F09B01AC01C301B2010E9413146D877E8763
S11318008F87988B9B01AC0169817A818B819C8144
S11318100E9443126B017C0129853A854B855C85C6
S1131820C501B4010E94131420E030E040E850E404
S11318300E941314698B7A8B8B8B9C8B9B01AC015C
S1131840C701B6010E9443126B017C0102E812E059
S1131850D8016D937D938D939C93139720E030E092
S113186040E051E4C501B4010E9413149B01AC0192
S113187069857A858B859C850E9413149B01AC0134
S11318806D817E818F8198850E9442126D837E8353
S11318908F8398872D853E854F85588969817A8104
S11318A08B819C810E9442129B01AC0169897A89D7
S11318B08B899C890E94431269837A838B839C83DE
S11318C0A70196016D8D7E8D8F8D98A10E94B41213
S11318D0EEE8F2E06083718382839383A70196012B
S11318E069A17AA18BA19CA10E94B4126093920277
S11318F0709393028093940290939502A7019601AA
S11319006DA17EA18FA198A50E94B4126093960246
S1131910709397028093980290939902A70196017D
S11319206D817E818F8198850E94B412D8011496AE
S11319306D937D938D939C931797A701960169816D
S11319407A818B819C810E94B412F801608771872F
S1131950828793872D893E894F89588DC301B201AF
S11319600E94B412D1016D937D938D939C93139730
S11319702D893E894F89588D698D7A8D8B8D9C8DEB
S11319800E94B4126093B2027093B3028093B402C3
S11319909093B502C090E202D090E302E090E4029A
S11319A0F090E502A7019601C301B2010E9413144D
S11319B0A50194010E94B4126093CA027093CB02F1
S11319C08093CC029093CD02A701960169857A8514
S11319D08B859C850E941314A30192010E94B4126A
S11319E06093C6027093C7028093C8029093C902A1
S11319F080911103882369F080910903833049F4AD
S1131A001092110381E08093080310920A030E944C
S1131A10CC0180910803813009F056CCA8960FB60A
S1131A20F894DEBF0FBECDBFDF91CF911F910F9110
S1131A30FF90EF90DF90CF90BF90AF909F908F90EA
S1131A407F906F905F904F903F902F900895CF9329
S1131A50DF93CDB7DEB7AC970FB6F894DEBF0FBEF9
S1131A60CDBF84B1846084B984B1806284B90E949A
S1131A7025010E9417020E9499000E94C10241E0C0
S1131A8061E088E991E00E94B6012FEF83ED90E3D5
S1131A90215080409040E1F700C000000E94CC013A
S1131AA041E061E089EA91E00E94B60141E062E030
S1131AB087EB91E00E94B601AFEFB3EDE0E3A150F4
S1131AC0B040E040E1F700C0000078948091060344
S1131AD0813009F474C00E94CC0140E061E084ECE0
S1131AE091E00E94B60141E062E085ED91E00E9440
S1131AF0B6014DE062E086EE91E00E94B60160E03E
S1131B0082E00E949B018EE30E9468011092090307
S1131B1056C080911003882389F10E94BA008B3249
S1131B2059F480910903813019F41092090313C008
S1131B308F5F809309030FC00E94BA008D3259F45D
S1131B4080910903811104C081E08093090303C0DB
S1131B5081508093090380910903811107C040E0FB
S1131B6062E089ED91E00E94B60106C040E062E0C7
S1131B708AEE91E00E94B601109210038091110345
S1131B80882369F080910903811109C08AE0809358
S1131B9007031092110381E08093060310C0809123
S1131BA01103882361F080910903882341F089E0BF
S1131BB0809307031092110381E0809306038091C0
S1131BC00603813009F0A5CF80910703893009F01D
S1131BD043C010928B0010928A000E9453000E940E
S1131BE0E4010E943D020E94CC0140E061E08BEFE1
S1131BF091E00E94B60140E062E087E092E00E943A
S1131C00B60110920E030FC080911103882359F07E
S1131C101092110310920A0382E080930E03109233
S1131C2006031092070380910E03882369F38091C1
S1131C300E03813009F021C40E94CC0140E061E030
S1131C4088E192E00E94B60181E080930A03109239
S1131C500E030E949F0811C48A3009F00AC40E942E
S1131C60CC0140E061E087E292E00E94B60141E0ED
S1131C7062E084E392E00E94B60160E082E00E94A8
S1131C809B018EE30E9468011092090310920503E0
S1131C90109208038FC080911003882309F451C067
S1131CA00E94BA008B3259F480910903823019F4EE
S1131CB01092090313C08F5F809309030FC00E9421
S1131CC0BA008D3259F480910903811104C082E075
S1131CD08093090303C08150809309038091090311
S1131CE0813091F018F08230E9F029C041E062E0DF
S1131CF084E492E00E94B60160E082E00E949B01CD
S1131D008EE30E9468011BC041E062E085E592E039
S1131D100E94B60160E082E00E949B018EE30E9473
S1131D2068010DC041E062E086E692E00E94B601DF
S1131D3060E082E00E949B018EE30E9468011092A1
S1131D40100380911103882369F0809109038111A4
S1131D5009C08CE0809305031092110381E0809305
S1131D60080328C080911103882369F08091090336
S1131D70813049F48BE0809305031092110381E0D4
S1131D808093080317C080911103882391F08091F8
S1131D900903823071F4109205031092110381E05B
S1131DA08093080310920A0310920603109207030B
S1131DB001C0000080910803813009F06CCF80914C
S1131DC005038B3009F472C08C3009F0C3C00E9443
S1131DD02603C0900801D0900901E0900A01F09018
S1131DE00B01A7019601C701B6010E9413149B01C0
S1131DF0AC01C701B6010E9443120E9486149B01E4
S1131E00AC01C701B6010E944312C0902801D090D2
S1131E102901E0902A01F0902B01A70196010E946C
S1131E20131420E030E040E05FE30E9413144B0100
S1131E305C016093FE027093FF0280930003909311
S1131E4001036091240170912501809126019091F4
S1131E5027019B01AC010E9443122B013C0120E0AD
S1131E6030E040E850E4C501B4010E9413149B0122
S1131E70AC01C701B6010E944312209120013091A8
S1131E80210140912201509123010E9413149B01CE
S1131E90AC01C301B2010E94B4126093EE027093CC
S1131EA0EF028093F0029093F10254C00E94260343
S1131EB0C0902801D0902901E0902A01F0902B01D4
S1131EC08090080190900901A0900A01B0900B0144
S1131ED0A5019401C701B6010E9413142B013C0112
S1131EE0A501940160E070E080E89FE30E94421243
S1131EF09B01AC01C301B2010E94B4129B01AC016D
S1131F006093FE027093FF02809300039093010399
S1131F10C701B6010E9443129B01AC0160912401E8
S1131F207091250180912601909127010E94B4129D
S1131F3020912001309121014091220150912301EF
S1131F400E94B4126093EE027093EF028093F00249
S1131F509093F10280910A03882309F48EC28AE0E7
S1131F600E9453000E94E401109209038091280109
S1131F7090912901A0912A01B0912B0189839A8320
S1131F80AB83BC8320E030E040E05FE3BC01CD01E3
S1131F900E9413144B015C016093F6027093F702E4
S1131FA08093F8029093F902C0902401D090250107
S1131FB0E0902601F0902701C092F202D092F30241
S1131FC0E092F402F092F502A70196010E944312F6
S1131FD02B013C016093E6027093E7028093E802D0
S1131FE09093E902A7019601C501B4010E9413145C
S1131FF0A30192010E94B4126D837E838F8398871C
S11320006093EA027093EB028093EC029093ED02EA
S11320102091EE023091EF024091F0025091F102D2
S1132020C301B2010E941314A70196010E94B412C5
S11320306D8B7E8B8F8B988F6093E2027093E3029B
S11320408093E4029093E502209108013091090104
S113205040910A0150910B0169817A818B819C81A5
S11320600E94131420E030E040E05FE30E94131468
S11320706093FA027093FB028093FC029093FD023A
S11320809B01AC010E9443126B017C0180900C0106
S113209090900D01A0900E01B0900F01A501940144
S11320A00E944312698F7A8F8B8F9C8F0F2EFEEACA
S11320B02F2EF2E03F2EF02DD1016D937D938D9361
S11320C09C931397A7019601C501B4010E94421283
S11320D06D8F7E8F8F8F98A38092AA029092AB020D
S11320E0A092AC02B092AD02A5019401C501B40165
S11320F00E94131469837A838B839C832091040147
S1132100309105014091060150910701C301B201CC
S11321100E9413149B01AC010E9443129B01AC0169
S1132120C501B4010E9413146D877E878F87988B35
S11321309B01AC0169817A818B819C810E9443124D
S113214069877A878B879C87C0900001D0900101B2
S1132150E0900201F0900301A7019601C301B201CE
S11321600E9413149B01AC016D817E818F8198853F
S11321700E94131420E030E040E850E40E9413145D
S1132180698B7A8B8B8B9C8B9B01AC0169857A85DF
S11321908B859C850E94431269A37AA38BA39CA37D
S11321A0A5019401C501B4010E9443129B01AC0135
S11321B0C501B4010E94131469877A878B879C87B1
S11321C020E030E040E051E4C701B6010E9413145E
S11321D09B01AC01C301B2010E9413149B01AC0129
S11321E06D817E818F8198850E9413149B01AC01BF
S11321F069857A858B859C850E9442126DA37EA396
S11322008FA398A72D853E854F85588969817A814A
S11322108B819C810E9442129B01AC0169897A895D
S11322208B899C890E94431269A77AA78BA79CA7D4
S1132230A3019201C301B2010E9443129B01AC01AC
S1132240C501B4010E9413146D877E878F87988B14
S11322509B01AC0169817A818B819C810E9443122C
S11322606B017C012D813E814F815885C301B201F0
S11322700E94131420E030E040E850E40E9413145C
S1132280698B7A8B8B8B9C8B9B01AC01C701B6014C
S11322900E9443126B017C0102E812E0F8016083A2
S11322A071838283938320E030E040E051E4C301F2
S11322B0B2010E9413149B01AC016D817E818F8158
S11322C098850E9413149B01AC0169857A858B85DE
S11322D09C850E94421269877A878B879C872D850B
S11322E03E854F85588969817A818B819C810E94C2
S11322F042129B01AC0169897A898B899C890E946D
S1132300431269837A838B839C83A701960169A115
S11323107AA18BA19CA10E94B412AEE8B2E06D93A5
S11323207D938D939C931397A70196016DA17EA134
S11323308FA198A50E94B4126093920270939302A5
S11323408093940290939502A701960169A57AA5BA
S11323508BA59CA50E94B412609396027093970279
S11323608093980290939902A701960169857A85D2
S11323708B859C850E94B412F801648375838683DF
S11323809783A701960169817A818B819C810E9440
S1132390B412D80118966D937D938D939C931B97DB
S11323A0298D3A8D4B8D5C8DC501B4010E94B41208
S11323B0E6EAF2E06083718382839383298D3A8D08
S11323C04B8D5C8D6D8D7E8D8F8D98A10E94B41286
S11323D0D10114966D937D938D939C931797A501CA
S11323E094016D897E898F89988D0E941314A301AD
S11323F092010E94B4126093CA027093CB0280933C
S1132400CC029093CD022D893E894F89588D6D81E0
S11324107E818F8198850E941314A50194010E94E6
S1132420B4126093C6027093C7028093C80290935B
S1132430C9020E94CC0140E061E081E891E00E9481
S1132440B60140E062E087E792E00E94B60140E016
S113245060912C0182E50E94F60540E060E08FE483
S11324600E94F60540E060912F0181E40E94F60588
S113247004C0000002C00E94AB0880910A038111CD
S1132480FACF24CB5058BB27AA270E945A120C9487
S1132490D4130E94C61338F00E94CD1320F039F4EF
S11324A09F3F19F426F40C94C3130EF4E095E7FB54
S11324B00C94BD13E92F0E94E51358F3BA17620771
S11324C073078407950720F079F4A6F50C94071494
S11324D00EF4E0950B2EBA2FA02D0B01B90190013B
S11324E00C01CA01A0011124FF27591B99F0593F7F
S11324F050F4503E68F11A16F040A22F232F342FC7
S11325004427585FF3CF469537952795A795F04014
S11325105395C9F77EF41F16BA0B620B730B840B29
S1132520BAF09150A1F0FF0FBB1F661F771F881FE1
S1132530C2F70EC0BA0F621F731F841F48F4879539
S113254077956795B795F7959E3F08F0B0CF93952B
S1132550880F08F09927EE0F9795879508950E94A4
S1132560991308F481E008950E94C8120C94D413BE
S11325700E94CD1358F00E94C61340F029F45F3F27
S113258029F00C94BD1351110C9408140C94C3132A
S11325900E94E51368F39923B1F3552391F3951B36
S11325A0550BBB27AA2762177307840738F09F5F70
S11325B05F4F220F331F441FAA1FA9F335D00E2EDD
S11325C03AF0E0E832D091505040E695001CCAF74A
S11325D02BD0FE2F29D0660F771F881FBB1F26170D
S11325E037074807AB07B0E809F0BB0B802DBF01E4
S11325F0FF2793585F4F3AF09E3F510578F00C94B3
S1132600BD130C9408145F3FE4F3983ED4F386950D
S113261077956795B795F7959F5FC9F7880F911DD3
S11326209695879597F90895E1E0660F771F881FBF
S1132630BB1F621773078407BA0720F0621B730B72
S1132640840BBA0BEE1F88F7E09508950E942D13B2
S11326506894B1110C94081408950E94ED1388F045
S11326609F5798F0B92F9927B751B0F0E1F0660F52
S1132670771F881F991F1AF0BA95C9F714C0B13093
S113268091F00E940714B1E008950C940714672F89
S1132690782F8827B85F39F0B93FCCF386957795C2
S11326A06795B395D9F73EF49095809570956195AB
S11326B07F4F8F4F9F4F0895E89409C097FB3EF4D6
S11326C090958095709561957F4F8F4F9F4F99237B
S11326D0A9F0F92F96E9BB279395F69587957795F9
S11326E06795B795F111F8CFFAF4BB0F11F460FFB9
S11326F01BC06F5F7F4F8F4F9F4F16C0882311F011
S113270096E911C0772321F09EE8872F762F05C024
S1132710662371F096E8862F70E060E02AF09A95BF
S1132720660F771F881FDAF7880F9695879597F9B4
S11327300895990F0008550FAA0BE0E8FEEF16164E
S11327401706E807F907C0F012161306E407F507A1
S113275098F0621B730B840B950B39F40A2661F015
S1132760232B242B252B21F408950A2609F4A140B8
S1132770A6958FEF811D811D089597F99F6780E8C5
S113278070E060E008959FEF80EC089500240A94BF
S11327901616170618060906089500240A94121638
S11327A01306140605060895092E0394000C11F46B
S11327B0882352F0BB0F40F4BF2B11F460FF04C018
S11327C06F5F7F4F8F4F9F4F089557FD9058440F71
S11327D0551F59F05F3F71F04795880F97FB991F7C
S11327E061F09F3F79F08795089512161306140639
S11327F0551FF2CF4695F1DF08C0161617061806C6
S1132800991FF1CF86957105610508940895E894A0
S1132810BB2766277727CB0197F908950E94991360
S113282008F48FEF08950E9426140C94D4130E9488
S1132830C61338F00E94CD1320F0952311F00C94A8
S1132840BD130C94C31311240C9408140E94E513B3
S113285070F3959FC1F3950F50E0551F629FF001EF
S1132860729FBB27F00DB11D639FAA27F00DB11D08
S1132870AA1F649F6627B00DA11D661F829F222791
S1132880B00DA11D621F739FB00DA11D621F839F18
S1132890A00D611D221F749F3327A00D611D231FEE
S11328A0849F600D211D822F762F6A2F11249F573C
S11328B050409AF0F1F088234AF0EE0FFF1FBB1F3F
S11328C0661F771F881F91505040A9F79E3F5105FE
S11328D080F00C94BD130C9408145F3FE4F3983E0D
S11328E0D4F3869577956795B795F795E7959F5FA8
S11328F0C1F7FE2B880F911D9695879597F908953A
S113290019F416F40C94C3130C94C6140E94ED131A
S1132910B8F39923C9F3B6F39F57550B87FF0E9469
S1132920D4140024A0E640EA900180585695979567
S113293028F4805C660F771F881F20F0261737075E
S1132940480730F4621B730B840B202931294A2B6E
S1132950A69517940794202531254A2758F7660F22
S1132960771F881F20F026173707480730F4620BBB
S1132970730B840B200D311D411DA09581F7B90106
S1132980842F9158880F9695879508959F3F31F02D
S1132990915020F4879577956795B795880F911D89
S11329A09695879597F9089591505040660F771F33
S11329B0881FD2F7089597FB072E16F4009407D0CA
S11329C077FD09D00E94FE1407FC05D03EF49095D3
S11329D081959F4F0895709561957F4F0895A29FAB
S11329E0B001B39FC001A39F700D811D1124911DDF
S11329F0B29F700D811D1124911D0895AA1BBB1B4C
S1132A0051E107C0AA1FBB1FA617B70710F0A61BEA
S1132A10B70B881F991F5A95A9F780959095BC010B
S10B2A20CD010895F894FFCFE5
S1132A280000003F0000003F0000003F2975493BBB
S1132A380000204000000000000000000000803F6B
S1132A480000803F54E3A53E6666A63E3232323229
S1132A58506172616D6574726F733A200020202092
S1132A6820202020202020202020202020003E4F2D
S1132A784B0046696E206465206D756573747265D4
S1132A886F2E003E567265663D2020202020204F80
S1132A984B0020413D202020202020417472617386
S1132AA800566F75743D2020202020413D202020B1
S1132AB82000567265663D002020204269656E76C6
S1132AC8656E69646F20202000436F6E74726F6CAA
S1132AD820494949202600417271756974656374F7
S1132AE87572610053656C656363696F6E65206D0B
S1132AF86F646F3A00504944003E504944202020F6
S1132B0820202020202041445100205049442020E6
S1132B182020202020203E414451004573706572D6
S1132B28616E646F2061004D41544C41422E2E2E3B
S1132B38203E4174726173004D75657374726561EA
S1132B486E646F2E2E2E00436F6E74726F6C616408
S1132B586F723A0043616E632E20706F6C6F2F633F
S1132B6865726F0043616E632E20706F6C6F2F6304
S1132B7865726F2000456E666F71756520494D4317
S1132B8820202020200041747261732020202020FE
S1132B9820202020202000567265663D2020202019
S1052BA8000027
S9030000FC
